S0100000526F626F5F6361722E73726563ED
S11300000C942A000C943C000C943C000C943C008E
S11300100C943C000C943C000C943C000C943C006C
S11300200C943C000C943C000C943C000C943C005C
S11300300C943C000C943C000C943C000C943C004C
S11300400C943C000C943C000C943C000C943C003C
S11300500C943C0011241FBECFE5D8E0DEBFCDBF19
S113006020E0A0E6B0E001C01D92A436B207E1F79B
S11300700E9460000C948D000C9400008BEF81BBF7
S113008083ED90E30197F1F700C000008BB7806423
S11300908BBF85B7816085BF1FBC7894909A95E02B
S11300A09A95F1F7909880916200909163006AE3C9
S11300B070E00E9465007093610060936000089591
S11300C08FEF8ABB0E943E00FDCF97FB072E16F4EC
S11300D0009407D077FD09D00E94790007FC05D071
S11300E03EF4909581959F4F0895709561957F4F4B
S11300F00895AA1BBB1B51E107C0AA1FBB1FA6176B
S1130100B70710F0A61BB70B881F991F5A95A9F7BC
S111011080959095BC01CD010895F894FFCF21
S9030000FC
